:100000000C942A000C943F000C943F000C943F0089
:100010000C943F000C943F000C943F000C943F0064
:100020000C943F000C943F000C943F000C943F0054
:100030000C943F000C943F000C943F000C943F0044
:100040000C943F000C943F000C943F000C943F0034
:100050000C943F0011241FBECFE5D8E0DEBFCDBF1A
:1000600010E0A0E6B0E0EEE1F3E002C005900D92F2
:10007000A637B107D9F70E9421010C948D010C9489
:100080000000A09AA89880E49CE90197F1F7A89A4B
:10009000A0989899FECF989BFECF9899FECF08958F
:1000A00020E080E030E5989BFECF932F9A95F1F702
:1000B000989B03C0880F816001C0880F9899FECF7C
:1000C0002F5F283081F7089598B3282F207F9F70E5
:1000D000292B28BBC098C19A22E0922F9A95F1F75C
:1000E000C198E0E9F1E03197F1F798B38295807F0C
:1000F0009F70982B98BBC19A2A95F1F7C19880EA16
:100100009FE00197F1F7089587B3836F87BB81E084
:100110000E94640082E00E94640088E20E94640001
:1001200080E80E9464008CE00E94640080EA9FE006
:100130000197F1F7089598B3282F207F9F70292BFE
:1001400028BBC09AC19A22E0922F9A95F1F7C198E4
:10015000E0E9F1E03197F1F798B38295807F9F70E5
:10016000982B98BBC19A2A95F1F7C19880EA9FE035
:100170000197F1F70895EF92FF921F93CF93DF93CA
:10018000EC0110E080EAE82E8FE0F82E06C00E9415
:100190009B00C7010197F1F71F5FFE01E10FF11D01
:1001A00080818823A1F7DF91CF911F91FF90EF907D
:1001B0000895FF920F931F93DF93CF9300D00F9278
:1001C000CDB7DEB7282F362F64E60E948101582F65
:1001D0008983822F0E948101892F6AE00E94810118
:1001E000482F8A83822F0E9481019B8320E3F22E75
:1001F000F92A332371F0852F80630E949B0000EA67
:100200001FE0C8010197F1F78A8180630E949B007B
:1002100006C0842F80630E949B0000EA1FE0C80193
:100220000197F1F78F2D0E949B00C8010197F1F70C
:100230000F900F900F90CF91DF911F910F91FF9032
:100240000895DF92EF92FF920F931F93CF93DF9366
:100250000E948400C8ECD0E00E9441000E9450003F
:10026000E82E0E945000D82E0E945000082F0E94B5
:100270005000F82E0E945000182F81E00E94640068
:1002800080E80E9464008D2D8E0D800F8F0D181751
:1002900029F080E690E00E94BB002AC087E690E04B
:1002A0000E94BB00802F60E00E94D9008EE20E9475
:1002B0009B008F2D61E00E94D9008FED0E949B0072
:1002C00083E40E949B0080EC0E9464008FE690E033
:1002D0000E94BB008E2D60E00E94D9008EE20E9439
:1002E0009B008D2D61E00E94D90085E20E949B0059
:1002F00088E893E1FE013197F1F7019709F4ACCF5B
:10030000F9CF991B79E004C0991F961708F0961B46
:0E031000881F7A95C9F780950895F894FFCF5D
:10031E004572726F72210054656D70203D2000523F
:06032E0048203D20000004
:00000001FF
